{
  "_format": "hh-sol-artifact-1",
  "contractName": "Domains",
  "sourceName": "contracts/Domains.sol",
  "abi": [
    {
      "inputs": [
        {
          "internalType": "string",
          "name": "_tld",
          "type": "string"
        }
      ],
      "stateMutability": "payable",
      "type": "constructor"
    },
    {
      "inputs": [
        {
          "internalType": "string",
          "name": "",
          "type": "string"
        }
      ],
      "name": "domains",
      "outputs": [
        {
          "internalType": "address",
          "name": "",
          "type": "address"
        }
      ],
      "stateMutability": "view",
      "type": "function"
    },
    {
      "inputs": [
        {
          "internalType": "string",
          "name": "name",
          "type": "string"
        }
      ],
      "name": "getAddress",
      "outputs": [
        {
          "internalType": "address",
          "name": "",
          "type": "address"
        }
      ],
      "stateMutability": "view",
      "type": "function"
    },
    {
      "inputs": [
        {
          "internalType": "string",
          "name": "name",
          "type": "string"
        }
      ],
      "name": "getRecord",
      "outputs": [
        {
          "internalType": "string",
          "name": "",
          "type": "string"
        }
      ],
      "stateMutability": "view",
      "type": "function"
    },
    {
      "inputs": [
        {
          "internalType": "string",
          "name": "name",
          "type": "string"
        }
      ],
      "name": "price",
      "outputs": [
        {
          "internalType": "uint256",
          "name": "",
          "type": "uint256"
        }
      ],
      "stateMutability": "pure",
      "type": "function"
    },
    {
      "inputs": [
        {
          "internalType": "string",
          "name": "",
          "type": "string"
        }
      ],
      "name": "records",
      "outputs": [
        {
          "internalType": "string",
          "name": "",
          "type": "string"
        }
      ],
      "stateMutability": "view",
      "type": "function"
    },
    {
      "inputs": [
        {
          "internalType": "string",
          "name": "name",
          "type": "string"
        }
      ],
      "name": "register",
      "outputs": [],
      "stateMutability": "payable",
      "type": "function"
    },
    {
      "inputs": [
        {
          "internalType": "string",
          "name": "name",
          "type": "string"
        },
        {
          "internalType": "string",
          "name": "record",
          "type": "string"
        }
      ],
      "name": "setRecord",
      "outputs": [],
      "stateMutability": "nonpayable",
      "type": "function"
    },
    {
      "inputs": [],
      "name": "tld",
      "outputs": [
        {
          "internalType": "string",
          "name": "",
          "type": "string"
        }
      ],
      "stateMutability": "view",
      "type": "function"
    }
  ],
  "bytecode": "0x6080604052604051620016ef380380620016ef8339818101604052810190620000299190620003b1565b80600290805190602001906200004192919062000164565b506200008e6040518060400160405280601881526020017f2573206e616d652073657276696365206465706c6f7965640000000000000000815250826200009560201b6200076c1760201c565b50620004ff565b620001378282604051602401620000ae9291906200045f565b6040516020818303038152906040527f4b5c4277000000000000000000000000000000000000000000000000000000007bffffffffffffffffffffffffffffffffffffffffffffffffffffffff19166020820180517bffffffffffffffffffffffffffffffffffffffffffffffffffffffff83818316178352505050506200013b60201b60201c565b5050565b60008151905060006a636f6e736f6c652e6c6f679050602083016000808483855afa5050505050565b8280546200017290620004c9565b90600052602060002090601f016020900481019282620001965760008555620001e2565b82601f10620001b157805160ff1916838001178555620001e2565b82800160010185558215620001e2579182015b82811115620001e1578251825591602001919060010190620001c4565b5b509050620001f19190620001f5565b5090565b5b8082111562000210576000816000905550600101620001f6565b5090565b6000604051905090565b600080fd5b600080fd5b600080fd5b600080fd5b6000601f19601f8301169050919050565b7f4e487b7100000000000000000000000000000000000000000000000000000000600052604160045260246000fd5b6200027d8262000232565b810181811067ffffffffffffffff821117156200029f576200029e62000243565b5b80604052505050565b6000620002b462000214565b9050620002c2828262000272565b919050565b600067ffffffffffffffff821115620002e557620002e462000243565b5b620002f08262000232565b9050602081019050919050565b60005b838110156200031d57808201518184015260208101905062000300565b838111156200032d576000848401525b50505050565b60006200034a6200034484620002c7565b620002a8565b9050828152602081018484840111156200036957620003686200022d565b5b62000376848285620002fd565b509392505050565b600082601f83011262000396576200039562000228565b5b8151620003a884826020860162000333565b91505092915050565b600060208284031215620003ca57620003c96200021e565b5b600082015167ffffffffffffffff811115620003eb57620003ea62000223565b5b620003f9848285016200037e565b91505092915050565b600081519050919050565b600082825260208201905092915050565b60006200042b8262000402565b6200043781856200040d565b935062000449818560208601620002fd565b620004548162000232565b840191505092915050565b600060408201905081810360008301526200047b81856200041e565b905081810360208301526200049181846200041e565b90509392505050565b7f4e487b7100000000000000000000000000000000000000000000000000000000600052602260045260246000fd5b60006002820490506001821680620004e257607f821691505b60208210811415620004f957620004f86200049a565b5b50919050565b6111e0806200050f6000396000f3fe60806040526004361061007b5760003560e01c8063bf40fac11161004e578063bf40fac114610162578063c1880a981461019f578063f2c298be146101c8578063fe2c6198146101e45761007b565b806311dd88451461008057806326449235146100bd5780632d551432146100fa578063541e771d14610125575b600080fd5b34801561008c57600080fd5b506100a760048036038101906100a29190610b9e565b610221565b6040516100b49190610c84565b60405180910390f35b3480156100c957600080fd5b506100e460048036038101906100df9190610dd6565b6102d4565b6040516100f19190610e60565b60405180910390f35b34801561010657600080fd5b5061010f61031d565b60405161011c9190610c84565b60405180910390f35b34801561013157600080fd5b5061014c60048036038101906101479190610dd6565b6103ab565b6040516101599190610c84565b60405180910390f35b34801561016e57600080fd5b5061018960048036038101906101849190610b9e565b610461565b6040516101969190610e60565b60405180910390f35b3480156101ab57600080fd5b506101c660048036038101906101c19190610e7b565b6104ab565b005b6101e260048036038101906101dd9190610b9e565b610559565b005b3480156101f057600080fd5b5061020b60048036038101906102069190610b9e565b6106c6565b6040516102189190610f15565b60405180910390f35b606060018383604051610235929190610f60565b9081526020016040518091039020805461024e90610fa8565b80601f016020809104026020016040519081016040528092919081815260200182805461027a90610fa8565b80156102c75780601f1061029c576101008083540402835291602001916102c7565b820191906000526020600020905b8154815290600101906020018083116102aa57829003601f168201915b5050505050905092915050565b6000818051602081018201805184825260208301602085012081835280955050505050506000915054906101000a900473ffffffffffffffffffffffffffffffffffffffff1681565b6002805461032a90610fa8565b80601f016020809104026020016040519081016040528092919081815260200182805461035690610fa8565b80156103a35780601f10610378576101008083540402835291602001916103a3565b820191906000526020600020905b81548152906001019060200180831161038657829003601f168201915b505050505081565b60018180516020810182018051848252602083016020850120818352809550505050505060009150905080546103e090610fa8565b80601f016020809104026020016040519081016040528092919081815260200182805461040c90610fa8565b80156104595780601f1061042e57610100808354040283529160200191610459565b820191906000526020600020905b81548152906001019060200180831161043c57829003601f168201915b505050505081565b6000808383604051610474929190610f60565b908152602001604051809103902060009054906101000a900473ffffffffffffffffffffffffffffffffffffffff16905092915050565b3373ffffffffffffffffffffffffffffffffffffffff16600085856040516104d4929190610f60565b908152602001604051809103902060009054906101000a900473ffffffffffffffffffffffffffffffffffffffff1673ffffffffffffffffffffffffffffffffffffffff161461052357600080fd5b818160018686604051610537929190610f60565b90815260200160405180910390209190610552929190610a82565b5050505050565b600073ffffffffffffffffffffffffffffffffffffffff1660008383604051610583929190610f60565b908152602001604051809103902060009054906101000a900473ffffffffffffffffffffffffffffffffffffffff1673ffffffffffffffffffffffffffffffffffffffff16146105d257600080fd5b60006105de83836106c6565b905080341015610623576040517f08c379a000000000000000000000000000000000000000000000000000000000815260040161061a90611026565b60405180910390fd5b3360008484604051610636929190610f60565b908152602001604051809103902060006101000a81548173ffffffffffffffffffffffffffffffffffffffff021916908373ffffffffffffffffffffffffffffffffffffffff1602179055506106c16040518060400160405280601b81526020017f2573206861732072656769737465726564206120646f6d61696e21000000000081525033610808565b505050565b60008061071684848080601f016020809104026020016040519081016040528093929190818152602001838380828437600081840152601f19601f820116905080830192505050505050506108a4565b90506000811161072557600080fd5b600381141561073f576706f05b59d3b20000915050610766565b600481141561075957670429d069189e0000915050610766565b67016345785d8a00009150505b92915050565b6108048282604051602401610782929190611046565b6040516020818303038152906040527f4b5c4277000000000000000000000000000000000000000000000000000000007bffffffffffffffffffffffffffffffffffffffffffffffffffffffff19166020820180517bffffffffffffffffffffffffffffffffffffffffffffffffffffffff8381831617835250505050610a59565b5050565b6108a0828260405160240161081e92919061107d565b6040516020818303038152906040527f319af333000000000000000000000000000000000000000000000000000000007bffffffffffffffffffffffffffffffffffffffffffffffffffffffff19166020820180517bffffffffffffffffffffffffffffffffffffffffffffffffffffffff8381831617835250505050610a59565b5050565b60008060008084519050600092505b80821015610a4e5760008583815181106108d0576108cf6110ad565b5b602001015160f81c60f81b9050608060f81b817effffffffffffffffffffffffffffffffffffffffffffffffffffffffffffff1916101561091f57600183610918919061110b565b9250610a3a565b60e060f81b817effffffffffffffffffffffffffffffffffffffffffffffffffffffffffffff191610156109615760028361095a919061110b565b9250610a39565b60f060f81b817effffffffffffffffffffffffffffffffffffffffffffffffffffffffffffff191610156109a35760038361099c919061110b565b9250610a38565b60f8801b817effffffffffffffffffffffffffffffffffffffffffffffffffffffffffffff191610156109e4576004836109dd919061110b565b9250610a37565b60fc60f81b817effffffffffffffffffffffffffffffffffffffffffffffffffffffffffffff19161015610a2657600583610a1f919061110b565b9250610a36565b600683610a33919061110b565b92505b5b5b5b5b508280610a4690611161565b9350506108b3565b829350505050919050565b60008151905060006a636f6e736f6c652e6c6f679050602083016000808483855afa5050505050565b828054610a8e90610fa8565b90600052602060002090601f016020900481019282610ab05760008555610af7565b82601f10610ac957803560ff1916838001178555610af7565b82800160010185558215610af7579182015b82811115610af6578235825591602001919060010190610adb565b5b509050610b049190610b08565b5090565b5b80821115610b21576000816000905550600101610b09565b5090565b6000604051905090565b600080fd5b600080fd5b600080fd5b600080fd5b600080fd5b60008083601f840112610b5e57610b5d610b39565b5b8235905067ffffffffffffffff811115610b7b57610b7a610b3e565b5b602083019150836001820283011115610b9757610b96610b43565b5b9250929050565b60008060208385031215610bb557610bb4610b2f565b5b600083013567ffffffffffffffff811115610bd357610bd2610b34565b5b610bdf85828601610b48565b92509250509250929050565b600081519050919050565b600082825260208201905092915050565b60005b83811015610c25578082015181840152602081019050610c0a565b83811115610c34576000848401525b50505050565b6000601f19601f8301169050919050565b6000610c5682610beb565b610c608185610bf6565b9350610c70818560208601610c07565b610c7981610c3a565b840191505092915050565b60006020820190508181036000830152610c9e8184610c4b565b905092915050565b600080fd5b7f4e487b7100000000000000000000000000000000000000000000000000000000600052604160045260246000fd5b610ce382610c3a565b810181811067ffffffffffffffff82111715610d0257610d01610cab565b5b80604052505050565b6000610d15610b25565b9050610d218282610cda565b919050565b600067ffffffffffffffff821115610d4157610d40610cab565b5b610d4a82610c3a565b9050602081019050919050565b82818337600083830152505050565b6000610d79610d7484610d26565b610d0b565b905082815260208101848484011115610d9557610d94610ca6565b5b610da0848285610d57565b509392505050565b600082601f830112610dbd57610dbc610b39565b5b8135610dcd848260208601610d66565b91505092915050565b600060208284031215610dec57610deb610b2f565b5b600082013567ffffffffffffffff811115610e0a57610e09610b34565b5b610e1684828501610da8565b91505092915050565b600073ffffffffffffffffffffffffffffffffffffffff82169050919050565b6000610e4a82610e1f565b9050919050565b610e5a81610e3f565b82525050565b6000602082019050610e756000830184610e51565b92915050565b60008060008060408587031215610e9557610e94610b2f565b5b600085013567ffffffffffffffff811115610eb357610eb2610b34565b5b610ebf87828801610b48565b9450945050602085013567ffffffffffffffff811115610ee257610ee1610b34565b5b610eee87828801610b48565b925092505092959194509250565b6000819050919050565b610f0f81610efc565b82525050565b6000602082019050610f2a6000830184610f06565b92915050565b600081905092915050565b6000610f478385610f30565b9350610f54838584610d57565b82840190509392505050565b6000610f6d828486610f3b565b91508190509392505050565b7f4e487b7100000000000000000000000000000000000000000000000000000000600052602260045260246000fd5b60006002820490506001821680610fc057607f821691505b60208210811415610fd457610fd3610f79565b5b50919050565b7f4e6f7420656e6f756768204d6174696320706169640000000000000000000000600082015250565b6000611010601583610bf6565b915061101b82610fda565b602082019050919050565b6000602082019050818103600083015261103f81611003565b9050919050565b600060408201905081810360008301526110608185610c4b565b905081810360208301526110748184610c4b565b90509392505050565b600060408201905081810360008301526110978185610c4b565b90506110a66020830184610e51565b9392505050565b7f4e487b7100000000000000000000000000000000000000000000000000000000600052603260045260246000fd5b7f4e487b7100000000000000000000000000000000000000000000000000000000600052601160045260246000fd5b600061111682610efc565b915061112183610efc565b9250827fffffffffffffffffffffffffffffffffffffffffffffffffffffffffffffffff03821115611156576111556110dc565b5b828201905092915050565b600061116c82610efc565b91507fffffffffffffffffffffffffffffffffffffffffffffffffffffffffffffffff82141561119f5761119e6110dc565b5b60018201905091905056fea26469706673582212204853d772719a1ce4c4d12cabc8a588ecf3b6a5b6ae5358f39e66af7e1cad5b2864736f6c634300080a0033",
  "linkReferences": {},
  "deployedLinkReferences": {}
}