{
  "_format": "hh-sol-artifact-1",
  "contractName": "Domains",
  "sourceName": "contracts/Domains.sol",
  "abi": [
    {
      "inputs": [
        {
          "internalType": "string",
          "name": "_tld",
          "type": "string"
        }
      ],
      "stateMutability": "payable",
      "type": "constructor"
    },
    {
      "anonymous": false,
      "inputs": [
        {
          "indexed": true,
          "internalType": "address",
          "name": "owner",
          "type": "address"
        },
        {
          "indexed": true,
          "internalType": "address",
          "name": "approved",
          "type": "address"
        },
        {
          "indexed": true,
          "internalType": "uint256",
          "name": "tokenId",
          "type": "uint256"
        }
      ],
      "name": "Approval",
      "type": "event"
    },
    {
      "anonymous": false,
      "inputs": [
        {
          "indexed": true,
          "internalType": "address",
          "name": "owner",
          "type": "address"
        },
        {
          "indexed": true,
          "internalType": "address",
          "name": "operator",
          "type": "address"
        },
        {
          "indexed": false,
          "internalType": "bool",
          "name": "approved",
          "type": "bool"
        }
      ],
      "name": "ApprovalForAll",
      "type": "event"
    },
    {
      "anonymous": false,
      "inputs": [
        {
          "indexed": true,
          "internalType": "address",
          "name": "from",
          "type": "address"
        },
        {
          "indexed": true,
          "internalType": "address",
          "name": "to",
          "type": "address"
        },
        {
          "indexed": true,
          "internalType": "uint256",
          "name": "tokenId",
          "type": "uint256"
        }
      ],
      "name": "Transfer",
      "type": "event"
    },
    {
      "inputs": [
        {
          "internalType": "address",
          "name": "to",
          "type": "address"
        },
        {
          "internalType": "uint256",
          "name": "tokenId",
          "type": "uint256"
        }
      ],
      "name": "approve",
      "outputs": [],
      "stateMutability": "nonpayable",
      "type": "function"
    },
    {
      "inputs": [
        {
          "internalType": "address",
          "name": "owner",
          "type": "address"
        }
      ],
      "name": "balanceOf",
      "outputs": [
        {
          "internalType": "uint256",
          "name": "",
          "type": "uint256"
        }
      ],
      "stateMutability": "view",
      "type": "function"
    },
    {
      "inputs": [
        {
          "internalType": "string",
          "name": "",
          "type": "string"
        }
      ],
      "name": "domains",
      "outputs": [
        {
          "internalType": "address",
          "name": "",
          "type": "address"
        }
      ],
      "stateMutability": "view",
      "type": "function"
    },
    {
      "inputs": [
        {
          "internalType": "string",
          "name": "name",
          "type": "string"
        }
      ],
      "name": "getAddress",
      "outputs": [
        {
          "internalType": "address",
          "name": "",
          "type": "address"
        }
      ],
      "stateMutability": "view",
      "type": "function"
    },
    {
      "inputs": [
        {
          "internalType": "uint256",
          "name": "tokenId",
          "type": "uint256"
        }
      ],
      "name": "getApproved",
      "outputs": [
        {
          "internalType": "address",
          "name": "",
          "type": "address"
        }
      ],
      "stateMutability": "view",
      "type": "function"
    },
    {
      "inputs": [
        {
          "internalType": "string",
          "name": "name",
          "type": "string"
        }
      ],
      "name": "getRecord",
      "outputs": [
        {
          "internalType": "string",
          "name": "",
          "type": "string"
        }
      ],
      "stateMutability": "view",
      "type": "function"
    },
    {
      "inputs": [
        {
          "internalType": "address",
          "name": "owner",
          "type": "address"
        },
        {
          "internalType": "address",
          "name": "operator",
          "type": "address"
        }
      ],
      "name": "isApprovedForAll",
      "outputs": [
        {
          "internalType": "bool",
          "name": "",
          "type": "bool"
        }
      ],
      "stateMutability": "view",
      "type": "function"
    },
    {
      "inputs": [],
      "name": "name",
      "outputs": [
        {
          "internalType": "string",
          "name": "",
          "type": "string"
        }
      ],
      "stateMutability": "view",
      "type": "function"
    },
    {
      "inputs": [
        {
          "internalType": "uint256",
          "name": "tokenId",
          "type": "uint256"
        }
      ],
      "name": "ownerOf",
      "outputs": [
        {
          "internalType": "address",
          "name": "",
          "type": "address"
        }
      ],
      "stateMutability": "view",
      "type": "function"
    },
    {
      "inputs": [
        {
          "internalType": "string",
          "name": "name",
          "type": "string"
        }
      ],
      "name": "price",
      "outputs": [
        {
          "internalType": "uint256",
          "name": "",
          "type": "uint256"
        }
      ],
      "stateMutability": "pure",
      "type": "function"
    },
    {
      "inputs": [
        {
          "internalType": "string",
          "name": "",
          "type": "string"
        }
      ],
      "name": "records",
      "outputs": [
        {
          "internalType": "string",
          "name": "",
          "type": "string"
        }
      ],
      "stateMutability": "view",
      "type": "function"
    },
    {
      "inputs": [
        {
          "internalType": "string",
          "name": "name",
          "type": "string"
        }
      ],
      "name": "register",
      "outputs": [],
      "stateMutability": "payable",
      "type": "function"
    },
    {
      "inputs": [
        {
          "internalType": "address",
          "name": "from",
          "type": "address"
        },
        {
          "internalType": "address",
          "name": "to",
          "type": "address"
        },
        {
          "internalType": "uint256",
          "name": "tokenId",
          "type": "uint256"
        }
      ],
      "name": "safeTransferFrom",
      "outputs": [],
      "stateMutability": "nonpayable",
      "type": "function"
    },
    {
      "inputs": [
        {
          "internalType": "address",
          "name": "from",
          "type": "address"
        },
        {
          "internalType": "address",
          "name": "to",
          "type": "address"
        },
        {
          "internalType": "uint256",
          "name": "tokenId",
          "type": "uint256"
        },
        {
          "internalType": "bytes",
          "name": "data",
          "type": "bytes"
        }
      ],
      "name": "safeTransferFrom",
      "outputs": [],
      "stateMutability": "nonpayable",
      "type": "function"
    },
    {
      "inputs": [
        {
          "internalType": "address",
          "name": "operator",
          "type": "address"
        },
        {
          "internalType": "bool",
          "name": "approved",
          "type": "bool"
        }
      ],
      "name": "setApprovalForAll",
      "outputs": [],
      "stateMutability": "nonpayable",
      "type": "function"
    },
    {
      "inputs": [
        {
          "internalType": "string",
          "name": "name",
          "type": "string"
        },
        {
          "internalType": "string",
          "name": "record",
          "type": "string"
        }
      ],
      "name": "setRecord",
      "outputs": [],
      "stateMutability": "nonpayable",
      "type": "function"
    },
    {
      "inputs": [
        {
          "internalType": "bytes4",
          "name": "interfaceId",
          "type": "bytes4"
        }
      ],
      "name": "supportsInterface",
      "outputs": [
        {
          "internalType": "bool",
          "name": "",
          "type": "bool"
        }
      ],
      "stateMutability": "view",
      "type": "function"
    },
    {
      "inputs": [],
      "name": "symbol",
      "outputs": [
        {
          "internalType": "string",
          "name": "",
          "type": "string"
        }
      ],
      "stateMutability": "view",
      "type": "function"
    },
    {
      "inputs": [],
      "name": "tld",
      "outputs": [
        {
          "internalType": "string",
          "name": "",
          "type": "string"
        }
      ],
      "stateMutability": "view",
      "type": "function"
    },
    {
      "inputs": [
        {
          "internalType": "uint256",
          "name": "tokenId",
          "type": "uint256"
        }
      ],
      "name": "tokenURI",
      "outputs": [
        {
          "internalType": "string",
          "name": "",
          "type": "string"
        }
      ],
      "stateMutability": "view",
      "type": "function"
    },
    {
      "inputs": [
        {
          "internalType": "address",
          "name": "from",
          "type": "address"
        },
        {
          "internalType": "address",
          "name": "to",
          "type": "address"
        },
        {
          "internalType": "uint256",
          "name": "tokenId",
          "type": "uint256"
        }
      ],
      "name": "transferFrom",
      "outputs": [],
      "stateMutability": "nonpayable",
      "type": "function"
    }
  ],
  "bytecode": "0x6080604052604051806108a0016040528061086b81526020016200488061086b9139600990805190602001906200003892919062000287565b506040518060400160405280600d81526020017f3c2f746578743e3c2f7376673e00000000000000000000000000000000000000815250600a90805190602001906200008692919062000287565b50604051620050eb380380620050eb8339818101604052810190620000ac9190620004d4565b6040518060400160405280601281526020017f4d69677565204e616d65205365727669636500000000000000000000000000008152506040518060400160405280600381526020017f4d4e53000000000000000000000000000000000000000000000000000000000081525081600090805190602001906200013092919062000287565b5080600190805190602001906200014992919062000287565b50505080600890805190602001906200016492919062000287565b50620001b16040518060400160405280601881526020017f2573206e616d652073657276696365206465706c6f796564000000000000000081525082620001b860201b620014631760201c565b5062000622565b6200025a8282604051602401620001d192919062000582565b6040516020818303038152906040527f4b5c4277000000000000000000000000000000000000000000000000000000007bffffffffffffffffffffffffffffffffffffffffffffffffffffffff19166020820180517bffffffffffffffffffffffffffffffffffffffffffffffffffffffff83818316178352505050506200025e60201b60201c565b5050565b60008151905060006a636f6e736f6c652e6c6f679050602083016000808483855afa5050505050565b8280546200029590620005ec565b90600052602060002090601f016020900481019282620002b9576000855562000305565b82601f10620002d457805160ff191683800117855562000305565b8280016001018555821562000305579182015b8281111562000304578251825591602001919060010190620002e7565b5b50905062000314919062000318565b5090565b5b808211156200033357600081600090555060010162000319565b5090565b6000604051905090565b600080fd5b600080fd5b600080fd5b600080fd5b6000601f19601f8301169050919050565b7f4e487b7100000000000000000000000000000000000000000000000000000000600052604160045260246000fd5b620003a08262000355565b810181811067ffffffffffffffff82111715620003c257620003c162000366565b5b80604052505050565b6000620003d762000337565b9050620003e5828262000395565b919050565b600067ffffffffffffffff82111562000408576200040762000366565b5b620004138262000355565b9050602081019050919050565b60005b838110156200044057808201518184015260208101905062000423565b8381111562000450576000848401525b50505050565b60006200046d6200046784620003ea565b620003cb565b9050828152602081018484840111156200048c576200048b62000350565b5b6200049984828562000420565b509392505050565b600082601f830112620004b957620004b86200034b565b5b8151620004cb84826020860162000456565b91505092915050565b600060208284031215620004ed57620004ec62000341565b5b600082015167ffffffffffffffff8111156200050e576200050d62000346565b5b6200051c84828501620004a1565b91505092915050565b600081519050919050565b600082825260208201905092915050565b60006200054e8262000525565b6200055a818562000530565b93506200056c81856020860162000420565b620005778162000355565b840191505092915050565b600060408201905081810360008301526200059e818562000541565b90508181036020830152620005b4818462000541565b90509392505050565b7f4e487b7100000000000000000000000000000000000000000000000000000000600052602260045260246000fd5b600060028204905060018216806200060557607f821691505b602082108114156200061c576200061b620005bd565b5b50919050565b61424e80620006326000396000f3fe60806040526004361061012a5760003560e01c80636352211e116100ab578063bf40fac11161006f578063bf40fac114610428578063c1880a9814610465578063c87b56dd1461048e578063e985e9c5146104cb578063f2c298be14610508578063fe2c6198146105245761012a565b80636352211e1461033157806370a082311461036e57806395d89b41146103ab578063a22cb465146103d6578063b88d4fde146103ff5761012a565b806323b872dd116100f257806323b872dd1461023a57806326449235146102635780632d551432146102a057806342842e0e146102cb578063541e771d146102f45761012a565b806301ffc9a71461012f57806306fdde031461016c578063081812fc14610197578063095ea7b3146101d457806311dd8845146101fd575b600080fd5b34801561013b57600080fd5b5061015660048036038101906101519190612b0d565b610561565b6040516101639190612b55565b60405180910390f35b34801561017857600080fd5b50610181610643565b60405161018e9190612c09565b60405180910390f35b3480156101a357600080fd5b506101be60048036038101906101b99190612c61565b6106d5565b6040516101cb9190612ccf565b60405180910390f35b3480156101e057600080fd5b506101fb60048036038101906101f69190612d16565b61071b565b005b34801561020957600080fd5b50610224600480360381019061021f9190612dbb565b610833565b6040516102319190612c09565b60405180910390f35b34801561024657600080fd5b50610261600480360381019061025c9190612e08565b6108e6565b005b34801561026f57600080fd5b5061028a60048036038101906102859190612f8b565b610946565b6040516102979190612ccf565b60405180910390f35b3480156102ac57600080fd5b506102b561098f565b6040516102c29190612c09565b60405180910390f35b3480156102d757600080fd5b506102f260048036038101906102ed9190612e08565b610a1d565b005b34801561030057600080fd5b5061031b60048036038101906103169190612f8b565b610a3d565b6040516103289190612c09565b60405180910390f35b34801561033d57600080fd5b5061035860048036038101906103539190612c61565b610af3565b6040516103659190612ccf565b60405180910390f35b34801561037a57600080fd5b5061039560048036038101906103909190612fd4565b610b7a565b6040516103a29190613010565b60405180910390f35b3480156103b757600080fd5b506103c0610c32565b6040516103cd9190612c09565b60405180910390f35b3480156103e257600080fd5b506103fd60048036038101906103f89190613057565b610cc4565b005b34801561040b57600080fd5b5061042660048036038101906104219190613138565b610cda565b005b34801561043457600080fd5b5061044f600480360381019061044a9190612dbb565b610d3c565b60405161045c9190612ccf565b60405180910390f35b34801561047157600080fd5b5061048c600480360381019061048791906131bb565b610d87565b005b34801561049a57600080fd5b506104b560048036038101906104b09190612c61565b610e35565b6040516104c29190612c09565b60405180910390f35b3480156104d757600080fd5b506104f260048036038101906104ed919061323c565b610f48565b6040516104ff9190612b55565b60405180910390f35b610522600480360381019061051d9190612dbb565b610fdc565b005b34801561053057600080fd5b5061054b60048036038101906105469190612dbb565b6113bd565b6040516105589190613010565b60405180910390f35b60007f80ac58cd000000000000000000000000000000000000000000000000000000007bffffffffffffffffffffffffffffffffffffffffffffffffffffffff1916827bffffffffffffffffffffffffffffffffffffffffffffffffffffffff1916148061062c57507f5b5e139f000000000000000000000000000000000000000000000000000000007bffffffffffffffffffffffffffffffffffffffffffffffffffffffff1916827bffffffffffffffffffffffffffffffffffffffffffffffffffffffff1916145b8061063c575061063b826114ff565b5b9050919050565b606060008054610652906132ab565b80601f016020809104026020016040519081016040528092919081815260200182805461067e906132ab565b80156106cb5780601f106106a0576101008083540402835291602001916106cb565b820191906000526020600020905b8154815290600101906020018083116106ae57829003601f168201915b5050505050905090565b60006106e082611569565b6004600083815260200190815260200160002060009054906101000a900473ffffffffffffffffffffffffffffffffffffffff169050919050565b600061072682610af3565b90508073ffffffffffffffffffffffffffffffffffffffff168373ffffffffffffffffffffffffffffffffffffffff161415610797576040517f08c379a000000000000000000000000000000000000000000000000000000000815260040161078e9061334f565b60405180910390fd5b8073ffffffffffffffffffffffffffffffffffffffff166107b66115b4565b73ffffffffffffffffffffffffffffffffffffffff1614806107e557506107e4816107df6115b4565b610f48565b5b610824576040517f08c379a000000000000000000000000000000000000000000000000000000000815260040161081b906133e1565b60405180910390fd5b61082e83836115bc565b505050565b6060600c8383604051610847929190613431565b90815260200160405180910390208054610860906132ab565b80601f016020809104026020016040519081016040528092919081815260200182805461088c906132ab565b80156108d95780601f106108ae576101008083540402835291602001916108d9565b820191906000526020600020905b8154815290600101906020018083116108bc57829003601f168201915b5050505050905092915050565b6108f76108f16115b4565b82611675565b610936576040517f08c379a000000000000000000000000000000000000000000000000000000000815260040161092d906134bc565b60405180910390fd5b61094183838361170a565b505050565b600b818051602081018201805184825260208301602085012081835280955050505050506000915054906101000a900473ffffffffffffffffffffffffffffffffffffffff1681565b6008805461099c906132ab565b80601f01602080910402602001604051908101604052809291908181526020018280546109c8906132ab565b8015610a155780601f106109ea57610100808354040283529160200191610a15565b820191906000526020600020905b8154815290600101906020018083116109f857829003601f168201915b505050505081565b610a3883838360405180602001604052806000815250610cda565b505050565b600c818051602081018201805184825260208301602085012081835280955050505050506000915090508054610a72906132ab565b80601f0160208091040260200160405190810160405280929190818152602001828054610a9e906132ab565b8015610aeb5780601f10610ac057610100808354040283529160200191610aeb565b820191906000526020600020905b815481529060010190602001808311610ace57829003601f168201915b505050505081565b600080610aff83611a04565b9050600073ffffffffffffffffffffffffffffffffffffffff168173ffffffffffffffffffffffffffffffffffffffff161415610b71576040517f08c379a0000000000000000000000000000000000000000000000000000000008152600401610b6890613528565b60405180910390fd5b80915050919050565b60008073ffffffffffffffffffffffffffffffffffffffff168273ffffffffffffffffffffffffffffffffffffffff161415610beb576040517f08c379a0000000000000000000000000000000000000000000000000000000008152600401610be2906135ba565b60405180910390fd5b600360008373ffffffffffffffffffffffffffffffffffffffff1673ffffffffffffffffffffffffffffffffffffffff168152602001908152602001600020549050919050565b606060018054610c41906132ab565b80601f0160208091040260200160405190810160405280929190818152602001828054610c6d906132ab565b8015610cba5780601f10610c8f57610100808354040283529160200191610cba565b820191906000526020600020905b815481529060010190602001808311610c9d57829003601f168201915b5050505050905090565b610cd6610ccf6115b4565b8383611a41565b5050565b610ceb610ce56115b4565b83611675565b610d2a576040517f08c379a0000000000000000000000000000000000000000000000000000000008152600401610d21906134bc565b60405180910390fd5b610d3684848484611bae565b50505050565b6000600b8383604051610d50929190613431565b908152602001604051809103902060009054906101000a900473ffffffffffffffffffffffffffffffffffffffff16905092915050565b3373ffffffffffffffffffffffffffffffffffffffff16600b8585604051610db0929190613431565b908152602001604051809103902060009054906101000a900473ffffffffffffffffffffffffffffffffffffffff1673ffffffffffffffffffffffffffffffffffffffff1614610dff57600080fd5b8181600c8686604051610e13929190613431565b90815260200160405180910390209190610e2e929190612978565b5050505050565b6060610e4082611569565b6000600660008481526020019081526020016000208054610e60906132ab565b80601f0160208091040260200160405190810160405280929190818152602001828054610e8c906132ab565b8015610ed95780601f10610eae57610100808354040283529160200191610ed9565b820191906000526020600020905b815481529060010190602001808311610ebc57829003601f168201915b505050505090506000610eea611c0a565b9050600081511415610f00578192505050610f43565b600082511115610f35578082604051602001610f1d92919061360b565b60405160208183030381529060405292505050610f43565b610f3e84611c21565b925050505b919050565b6000600560008473ffffffffffffffffffffffffffffffffffffffff1673ffffffffffffffffffffffffffffffffffffffff16815260200190815260200160002060008373ffffffffffffffffffffffffffffffffffffffff1673ffffffffffffffffffffffffffffffffffffffff16815260200190815260200160002060009054906101000a900460ff16905092915050565b600073ffffffffffffffffffffffffffffffffffffffff16600b8383604051611006929190613431565b908152602001604051809103902060009054906101000a900473ffffffffffffffffffffffffffffffffffffffff1673ffffffffffffffffffffffffffffffffffffffff161461105557600080fd5b600061106183836113bd565b9050803410156110a6576040517f08c379a000000000000000000000000000000000000000000000000000000000815260040161109d9061367b565b60405180910390fd5b6000838360086040516020016110be9392919061377b565b60405160208183030381529060405290506000600982600a6040516020016110e8939291906137ac565b604051602081830303815290604052905060006111056007611c89565b9050600061115687878080601f016020809104026020016040519081016040528093929190818152602001838380828437600081840152601f19601f82011690508083019250505050505050611c97565b9050600061116382611e4c565b905061125760405180606001604052806031815260200161416f6031913989898080601f016020809104026020016040519081016040528093929190818152602001838380828437600081840152601f19601f82011690508083019250505050505050600880546111d3906132ab565b80601f01602080910402602001604051908101604052809291908181526020018280546111ff906132ab565b801561124c5780601f106112215761010080835404028352916020019161124c565b820191906000526020600020905b81548152906001019060200180831161122f57829003601f168201915b505050505086611f24565b600061128d8661126687611fc6565b8460405160200161127993929190613959565b604051602081830303815290604052611fc6565b90506000816040516020016112a29190613a28565b60405160208183030381529060405290506112d46040518060600160405280603981526020016141366039913961212a565b6113136040518060400160405280600e81526020017f46696e616c20746f6b656e55524900000000000000000000000000000000000081525082611463565b6113346040518060600160405280603981526020016141a06039913961212a565b61133e33866121c3565b61134885826121e1565b33600b8b8b60405161135b929190613431565b908152602001604051809103902060006101000a81548173ffffffffffffffffffffffffffffffffffffffff021916908373ffffffffffffffffffffffffffffffffffffffff1602179055506113b16007612255565b50505050505050505050565b60008061140d84848080601f016020809104026020016040519081016040528093929190818152602001838380828437600081840152601f19601f82011690508083019250505050505050611c97565b90506000811161141c57600080fd5b6003811415611436576706f05b59d3b2000091505061145d565b600481141561145057670429d069189e000091505061145d565b67016345785d8a00009150505b92915050565b6114fb8282604051602401611479929190613a4a565b6040516020818303038152906040527f4b5c4277000000000000000000000000000000000000000000000000000000007bffffffffffffffffffffffffffffffffffffffffffffffffffffffff19166020820180517bffffffffffffffffffffffffffffffffffffffffffffffffffffffff838183161783525050505061226b565b5050565b60007f01ffc9a7000000000000000000000000000000000000000000000000000000007bffffffffffffffffffffffffffffffffffffffffffffffffffffffff1916827bffffffffffffffffffffffffffffffffffffffffffffffffffffffff1916149050919050565b61157281612294565b6115b1576040517f08c379a00000000000000000000000000000000000000000000000000000000081526004016115a890613528565b60405180910390fd5b50565b600033905090565b816004600083815260200190815260200160002060006101000a81548173ffffffffffffffffffffffffffffffffffffffff021916908373ffffffffffffffffffffffffffffffffffffffff160217905550808273ffffffffffffffffffffffffffffffffffffffff1661162f83610af3565b73ffffffffffffffffffffffffffffffffffffffff167f8c5be1e5ebec7d5bd14f71427d1e84f3dd0314c0f7b2291e5b200ac8c7c3b92560405160405180910390a45050565b60008061168183610af3565b90508073ffffffffffffffffffffffffffffffffffffffff168473ffffffffffffffffffffffffffffffffffffffff1614806116c357506116c28185610f48565b5b8061170157508373ffffffffffffffffffffffffffffffffffffffff166116e9846106d5565b73ffffffffffffffffffffffffffffffffffffffff16145b91505092915050565b8273ffffffffffffffffffffffffffffffffffffffff1661172a82610af3565b73ffffffffffffffffffffffffffffffffffffffff1614611780576040517f08c379a000000000000000000000000000000000000000000000000000000000815260040161177790613af3565b60405180910390fd5b600073ffffffffffffffffffffffffffffffffffffffff168273ffffffffffffffffffffffffffffffffffffffff1614156117f0576040517f08c379a00000000000000000000000000000000000000000000000000000000081526004016117e790613b85565b60405180910390fd5b6117fd83838360016122d5565b8273ffffffffffffffffffffffffffffffffffffffff1661181d82610af3565b73ffffffffffffffffffffffffffffffffffffffff1614611873576040517f08c379a000000000000000000000000000000000000000000000000000000000815260040161186a90613af3565b60405180910390fd5b6004600082815260200190815260200160002060006101000a81549073ffffffffffffffffffffffffffffffffffffffff02191690556001600360008573ffffffffffffffffffffffffffffffffffffffff1673ffffffffffffffffffffffffffffffffffffffff168152602001908152602001600020600082825403925050819055506001600360008473ffffffffffffffffffffffffffffffffffffffff1673ffffffffffffffffffffffffffffffffffffffff16815260200190815260200160002060008282540192505081905550816002600083815260200190815260200160002060006101000a81548173ffffffffffffffffffffffffffffffffffffffff021916908373ffffffffffffffffffffffffffffffffffffffff160217905550808273ffffffffffffffffffffffffffffffffffffffff168473ffffffffffffffffffffffffffffffffffffffff167fddf252ad1be2c89b69c2b068fc378daa952ba7f163c4a11628f55a4df523b3ef60405160405180910390a46119ff83838360016123fb565b505050565b60006002600083815260200190815260200160002060009054906101000a900473ffffffffffffffffffffffffffffffffffffffff169050919050565b8173ffffffffffffffffffffffffffffffffffffffff168373ffffffffffffffffffffffffffffffffffffffff161415611ab0576040517f08c379a0000000000000000000000000000000000000000000000000000000008152600401611aa790613bf1565b60405180910390fd5b80600560008573ffffffffffffffffffffffffffffffffffffffff1673ffffffffffffffffffffffffffffffffffffffff16815260200190815260200160002060008473ffffffffffffffffffffffffffffffffffffffff1673ffffffffffffffffffffffffffffffffffffffff16815260200190815260200160002060006101000a81548160ff0219169083151502179055508173ffffffffffffffffffffffffffffffffffffffff168373ffffffffffffffffffffffffffffffffffffffff167f17307eab39ab6107e8899845ad3d59bd9653f200f220920489ca2b5937696c3183604051611ba19190612b55565b60405180910390a3505050565b611bb984848461170a565b611bc584848484612401565b611c04576040517f08c379a0000000000000000000000000000000000000000000000000000000008152600401611bfb90613c83565b60405180910390fd5b50505050565b606060405180602001604052806000815250905090565b6060611c2c82611569565b6000611c36611c0a565b90506000815111611c565760405180602001604052806000815250611c81565b80611c6084611e4c565b604051602001611c7192919061360b565b6040516020818303038152906040525b915050919050565b600081600001549050919050565b60008060008084519050600092505b80821015611e41576000858381518110611cc357611cc2613ca3565b5b602001015160f81c60f81b9050608060f81b817effffffffffffffffffffffffffffffffffffffffffffffffffffffffffffff19161015611d1257600183611d0b9190613d01565b9250611e2d565b60e060f81b817effffffffffffffffffffffffffffffffffffffffffffffffffffffffffffff19161015611d5457600283611d4d9190613d01565b9250611e2c565b60f060f81b817effffffffffffffffffffffffffffffffffffffffffffffffffffffffffffff19161015611d9657600383611d8f9190613d01565b9250611e2b565b60f8801b817effffffffffffffffffffffffffffffffffffffffffffffffffffffffffffff19161015611dd757600483611dd09190613d01565b9250611e2a565b60fc60f81b817effffffffffffffffffffffffffffffffffffffffffffffffffffffffffffff19161015611e1957600583611e129190613d01565b9250611e29565b600683611e269190613d01565b92505b5b5b5b5b508280611e3990613d57565b935050611ca6565b829350505050919050565b606060006001611e5b84612589565b01905060008167ffffffffffffffff811115611e7a57611e79612e60565b5b6040519080825280601f01601f191660200182016040528015611eac5781602001600182028036833780820191505090505b509050600082602001820190505b600115611f19578080600190039150507f3031323334353637383961626364656600000000000000000000000000000000600a86061a8153600a8581611f0357611f02613da0565b5b0494506000851415611f1457611f19565b611eba565b819350505050919050565b611fc084848484604051602401611f3e9493929190613dcf565b6040516020818303038152906040527f8eafb02b000000000000000000000000000000000000000000000000000000007bffffffffffffffffffffffffffffffffffffffffffffffffffffffff19166020820180517bffffffffffffffffffffffffffffffffffffffffffffffffffffffff838183161783525050505061226b565b50505050565b6060600082511415611fe957604051806020016040528060008152509050612125565b60006040518060600160405280604081526020016141d960409139905060006003600285516120189190613d01565b6120229190613e29565b600461202e9190613e5a565b67ffffffffffffffff81111561204757612046612e60565b5b6040519080825280601f01601f1916602001820160405280156120795781602001600182028036833780820191505090505b509050600182016020820185865187015b808210156120e5576003820191508151603f8160121c168501518453600184019350603f81600c1c168501518453600184019350603f8160061c168501518453600184019350603f811685015184536001840193505061208a565b505060038651066001811461210157600281146121145761211c565b603d6001830353603d600283035361211c565b603d60018303535b50505080925050505b919050565b6121c08160405160240161213e9190612c09565b6040516020818303038152906040527f41304fac000000000000000000000000000000000000000000000000000000007bffffffffffffffffffffffffffffffffffffffffffffffffffffffff19166020820180517bffffffffffffffffffffffffffffffffffffffffffffffffffffffff838183161783525050505061226b565b50565b6121dd8282604051806020016040528060008152506126dc565b5050565b6121ea82612294565b612229576040517f08c379a000000000000000000000000000000000000000000000000000000000815260040161222090613f26565b60405180910390fd5b806006600084815260200190815260200160002090805190602001906122509291906129fe565b505050565b6001816000016000828254019250508190555050565b60008151905060006a636f6e736f6c652e6c6f679050602083016000808483855afa5050505050565b60008073ffffffffffffffffffffffffffffffffffffffff166122b683611a04565b73ffffffffffffffffffffffffffffffffffffffff1614159050919050565b60018111156123f557600073ffffffffffffffffffffffffffffffffffffffff168473ffffffffffffffffffffffffffffffffffffffff16146123695780600360008673ffffffffffffffffffffffffffffffffffffffff1673ffffffffffffffffffffffffffffffffffffffff16815260200190815260200160002060008282546123619190613f46565b925050819055505b600073ffffffffffffffffffffffffffffffffffffffff168373ffffffffffffffffffffffffffffffffffffffff16146123f45780600360008573ffffffffffffffffffffffffffffffffffffffff1673ffffffffffffffffffffffffffffffffffffffff16815260200190815260200160002060008282546123ec9190613d01565b925050819055505b5b50505050565b50505050565b60006124228473ffffffffffffffffffffffffffffffffffffffff16612737565b1561257c578373ffffffffffffffffffffffffffffffffffffffff1663150b7a0261244b6115b4565b8786866040518563ffffffff1660e01b815260040161246d9493929190613fcf565b6020604051808303816000875af19250505080156124a957506040513d601f19601f820116820180604052508101906124a69190614030565b60015b61252c573d80600081146124d9576040519150601f19603f3d011682016040523d82523d6000602084013e6124de565b606091505b50600081511415612524576040517f08c379a000000000000000000000000000000000000000000000000000000000815260040161251b90613c83565b60405180910390fd5b805181602001fd5b63150b7a0260e01b7bffffffffffffffffffffffffffffffffffffffffffffffffffffffff1916817bffffffffffffffffffffffffffffffffffffffffffffffffffffffff191614915050612581565b600190505b949350505050565b600080600090507a184f03e93ff9f4daa797ed6e38ed64bf6a1f01000000000000000083106125e7577a184f03e93ff9f4daa797ed6e38ed64bf6a1f01000000000000000083816125dd576125dc613da0565b5b0492506040810190505b6d04ee2d6d415b85acef81000000008310612624576d04ee2d6d415b85acef8100000000838161261a57612619613da0565b5b0492506020810190505b662386f26fc10000831061265357662386f26fc10000838161264957612648613da0565b5b0492506010810190505b6305f5e100831061267c576305f5e100838161267257612671613da0565b5b0492506008810190505b61271083106126a157612710838161269757612696613da0565b5b0492506004810190505b606483106126c457606483816126ba576126b9613da0565b5b0492506002810190505b600a83106126d3576001810190505b80915050919050565b6126e6838361275a565b6126f36000848484612401565b612732576040517f08c379a000000000000000000000000000000000000000000000000000000000815260040161272990613c83565b60405180910390fd5b505050565b6000808273ffffffffffffffffffffffffffffffffffffffff163b119050919050565b600073ffffffffffffffffffffffffffffffffffffffff168273ffffffffffffffffffffffffffffffffffffffff1614156127ca576040517f08c379a00000000000000000000000000000000000000000000000000000000081526004016127c1906140a9565b60405180910390fd5b6127d381612294565b15612813576040517f08c379a000000000000000000000000000000000000000000000000000000000815260040161280a90614115565b60405180910390fd5b6128216000838360016122d5565b61282a81612294565b1561286a576040517f08c379a000000000000000000000000000000000000000000000000000000000815260040161286190614115565b60405180910390fd5b6001600360008473ffffffffffffffffffffffffffffffffffffffff1673ffffffffffffffffffffffffffffffffffffffff16815260200190815260200160002060008282540192505081905550816002600083815260200190815260200160002060006101000a81548173ffffffffffffffffffffffffffffffffffffffff021916908373ffffffffffffffffffffffffffffffffffffffff160217905550808273ffffffffffffffffffffffffffffffffffffffff16600073ffffffffffffffffffffffffffffffffffffffff167fddf252ad1be2c89b69c2b068fc378daa952ba7f163c4a11628f55a4df523b3ef60405160405180910390a46129746000838360016123fb565b5050565b828054612984906132ab565b90600052602060002090601f0160209004810192826129a657600085556129ed565b82601f106129bf57803560ff19168380011785556129ed565b828001600101855582156129ed579182015b828111156129ec5782358255916020019190600101906129d1565b5b5090506129fa9190612a84565b5090565b828054612a0a906132ab565b90600052602060002090601f016020900481019282612a2c5760008555612a73565b82601f10612a4557805160ff1916838001178555612a73565b82800160010185558215612a73579182015b82811115612a72578251825591602001919060010190612a57565b5b509050612a809190612a84565b5090565b5b80821115612a9d576000816000905550600101612a85565b5090565b6000604051905090565b600080fd5b600080fd5b60007fffffffff0000000000000000000000000000000000000000000000000000000082169050919050565b612aea81612ab5565b8114612af557600080fd5b50565b600081359050612b0781612ae1565b92915050565b600060208284031215612b2357612b22612aab565b5b6000612b3184828501612af8565b91505092915050565b60008115159050919050565b612b4f81612b3a565b82525050565b6000602082019050612b6a6000830184612b46565b92915050565b600081519050919050565b600082825260208201905092915050565b60005b83811015612baa578082015181840152602081019050612b8f565b83811115612bb9576000848401525b50505050565b6000601f19601f8301169050919050565b6000612bdb82612b70565b612be58185612b7b565b9350612bf5818560208601612b8c565b612bfe81612bbf565b840191505092915050565b60006020820190508181036000830152612c238184612bd0565b905092915050565b6000819050919050565b612c3e81612c2b565b8114612c4957600080fd5b50565b600081359050612c5b81612c35565b92915050565b600060208284031215612c7757612c76612aab565b5b6000612c8584828501612c4c565b91505092915050565b600073ffffffffffffffffffffffffffffffffffffffff82169050919050565b6000612cb982612c8e565b9050919050565b612cc981612cae565b82525050565b6000602082019050612ce46000830184612cc0565b92915050565b612cf381612cae565b8114612cfe57600080fd5b50565b600081359050612d1081612cea565b92915050565b60008060408385031215612d2d57612d2c612aab565b5b6000612d3b85828601612d01565b9250506020612d4c85828601612c4c565b9150509250929050565b600080fd5b600080fd5b600080fd5b60008083601f840112612d7b57612d7a612d56565b5b8235905067ffffffffffffffff811115612d9857612d97612d5b565b5b602083019150836001820283011115612db457612db3612d60565b5b9250929050565b60008060208385031215612dd257612dd1612aab565b5b600083013567ffffffffffffffff811115612df057612def612ab0565b5b612dfc85828601612d65565b92509250509250929050565b600080600060608486031215612e2157612e20612aab565b5b6000612e2f86828701612d01565b9350506020612e4086828701612d01565b9250506040612e5186828701612c4c565b9150509250925092565b600080fd5b7f4e487b7100000000000000000000000000000000000000000000000000000000600052604160045260246000fd5b612e9882612bbf565b810181811067ffffffffffffffff82111715612eb757612eb6612e60565b5b80604052505050565b6000612eca612aa1565b9050612ed68282612e8f565b919050565b600067ffffffffffffffff821115612ef657612ef5612e60565b5b612eff82612bbf565b9050602081019050919050565b82818337600083830152505050565b6000612f2e612f2984612edb565b612ec0565b905082815260208101848484011115612f4a57612f49612e5b565b5b612f55848285612f0c565b509392505050565b600082601f830112612f7257612f71612d56565b5b8135612f82848260208601612f1b565b91505092915050565b600060208284031215612fa157612fa0612aab565b5b600082013567ffffffffffffffff811115612fbf57612fbe612ab0565b5b612fcb84828501612f5d565b91505092915050565b600060208284031215612fea57612fe9612aab565b5b6000612ff884828501612d01565b91505092915050565b61300a81612c2b565b82525050565b60006020820190506130256000830184613001565b92915050565b61303481612b3a565b811461303f57600080fd5b50565b6000813590506130518161302b565b92915050565b6000806040838503121561306e5761306d612aab565b5b600061307c85828601612d01565b925050602061308d85828601613042565b9150509250929050565b600067ffffffffffffffff8211156130b2576130b1612e60565b5b6130bb82612bbf565b9050602081019050919050565b60006130db6130d684613097565b612ec0565b9050828152602081018484840111156130f7576130f6612e5b565b5b613102848285612f0c565b509392505050565b600082601f83011261311f5761311e612d56565b5b813561312f8482602086016130c8565b91505092915050565b6000806000806080858703121561315257613151612aab565b5b600061316087828801612d01565b945050602061317187828801612d01565b935050604061318287828801612c4c565b925050606085013567ffffffffffffffff8111156131a3576131a2612ab0565b5b6131af8782880161310a565b91505092959194509250565b600080600080604085870312156131d5576131d4612aab565b5b600085013567ffffffffffffffff8111156131f3576131f2612ab0565b5b6131ff87828801612d65565b9450945050602085013567ffffffffffffffff81111561322257613221612ab0565b5b61322e87828801612d65565b925092505092959194509250565b6000806040838503121561325357613252612aab565b5b600061326185828601612d01565b925050602061327285828601612d01565b9150509250929050565b7f4e487b7100000000000000000000000000000000000000000000000000000000600052602260045260246000fd5b600060028204905060018216806132c357607f821691505b602082108114156132d7576132d661327c565b5b50919050565b7f4552433732313a20617070726f76616c20746f2063757272656e74206f776e6560008201527f7200000000000000000000000000000000000000000000000000000000000000602082015250565b6000613339602183612b7b565b9150613344826132dd565b604082019050919050565b600060208201905081810360008301526133688161332c565b9050919050565b7f4552433732313a20617070726f76652063616c6c6572206973206e6f7420746f60008201527f6b656e206f776e6572206f7220617070726f76656420666f7220616c6c000000602082015250565b60006133cb603d83612b7b565b91506133d68261336f565b604082019050919050565b600060208201905081810360008301526133fa816133be565b9050919050565b600081905092915050565b60006134188385613401565b9350613425838584612f0c565b82840190509392505050565b600061343e82848661340c565b91508190509392505050565b7f4552433732313a2063616c6c6572206973206e6f7420746f6b656e206f776e6560008201527f72206f7220617070726f76656400000000000000000000000000000000000000602082015250565b60006134a6602d83612b7b565b91506134b18261344a565b604082019050919050565b600060208201905081810360008301526134d581613499565b9050919050565b7f4552433732313a20696e76616c696420746f6b656e2049440000000000000000600082015250565b6000613512601883612b7b565b915061351d826134dc565b602082019050919050565b6000602082019050818103600083015261354181613505565b9050919050565b7f4552433732313a2061646472657373207a65726f206973206e6f74206120766160008201527f6c6964206f776e65720000000000000000000000000000000000000000000000602082015250565b60006135a4602983612b7b565b91506135af82613548565b604082019050919050565b600060208201905081810360008301526135d381613597565b9050919050565b60006135e582612b70565b6135ef8185613401565b93506135ff818560208601612b8c565b80840191505092915050565b600061361782856135da565b915061362382846135da565b91508190509392505050565b7f4e6f7420656e6f756768204d6174696320706169640000000000000000000000600082015250565b6000613665601583612b7b565b91506136708261362f565b602082019050919050565b6000602082019050818103600083015261369481613658565b9050919050565b7f2e00000000000000000000000000000000000000000000000000000000000000600082015250565b60006136d1600183613401565b91506136dc8261369b565b600182019050919050565b60008190508160005260206000209050919050565b60008154613709816132ab565b6137138186613401565b9450600182166000811461372e576001811461373f57613772565b60ff19831686528186019350613772565b613748856136e7565b60005b8381101561376a5781548189015260018201915060208101905061374b565b838801955050505b50505092915050565b600061378882858761340c565b9150613793826136c4565b915061379f82846136fc565b9150819050949350505050565b60006137b882866136fc565b91506137c482856135da565b91506137d082846136fc565b9150819050949350505050565b7f7b226e616d65223a202200000000000000000000000000000000000000000000600082015250565b6000613813600a83613401565b915061381e826137dd565b600a82019050919050565b7f222c20226465736372697074696f6e223a20224120646f6d61696e206f6e207460008201527f6865206d69677565206e616d652073657276696365222c2022696d616765223a60208201527f2022646174613a696d6167652f7376672b786d6c3b6261736536342c00000000604082015250565b60006138ab605c83613401565b91506138b682613829565b605c82019050919050565b7f222c226c656e677468223a220000000000000000000000000000000000000000600082015250565b60006138f7600c83613401565b9150613902826138c1565b600c82019050919050565b7f227d000000000000000000000000000000000000000000000000000000000000600082015250565b6000613943600283613401565b915061394e8261390d565b600282019050919050565b600061396482613806565b915061397082866135da565b915061397b8261389e565b915061398782856135da565b9150613992826138ea565b915061399e82846135da565b91506139a982613936565b9150819050949350505050565b7f646174613a6170706c69636174696f6e2f6e66745f6a736f6e3b62617365363460008201527f2c00000000000000000000000000000000000000000000000000000000000000602082015250565b6000613a12602183613401565b9150613a1d826139b6565b602182019050919050565b6000613a3382613a05565b9150613a3f82846135da565b915081905092915050565b60006040820190508181036000830152613a648185612bd0565b90508181036020830152613a788184612bd0565b90509392505050565b7f4552433732313a207472616e736665722066726f6d20696e636f72726563742060008201527f6f776e6572000000000000000000000000000000000000000000000000000000602082015250565b6000613add602583612b7b565b9150613ae882613a81565b604082019050919050565b60006020820190508181036000830152613b0c81613ad0565b9050919050565b7f4552433732313a207472616e7366657220746f20746865207a65726f2061646460008201527f7265737300000000000000000000000000000000000000000000000000000000602082015250565b6000613b6f602483612b7b565b9150613b7a82613b13565b604082019050919050565b60006020820190508181036000830152613b9e81613b62565b9050919050565b7f4552433732313a20617070726f766520746f2063616c6c657200000000000000600082015250565b6000613bdb601983612b7b565b9150613be682613ba5565b602082019050919050565b60006020820190508181036000830152613c0a81613bce565b9050919050565b7f4552433732313a207472616e7366657220746f206e6f6e20455243373231526560008201527f63656976657220696d706c656d656e7465720000000000000000000000000000602082015250565b6000613c6d603283612b7b565b9150613c7882613c11565b604082019050919050565b60006020820190508181036000830152613c9c81613c60565b9050919050565b7f4e487b7100000000000000000000000000000000000000000000000000000000600052603260045260246000fd5b7f4e487b7100000000000000000000000000000000000000000000000000000000600052601160045260246000fd5b6000613d0c82612c2b565b9150613d1783612c2b565b9250827fffffffffffffffffffffffffffffffffffffffffffffffffffffffffffffffff03821115613d4c57613d4b613cd2565b5b828201905092915050565b6000613d6282612c2b565b91507fffffffffffffffffffffffffffffffffffffffffffffffffffffffffffffffff821415613d9557613d94613cd2565b5b600182019050919050565b7f4e487b7100000000000000000000000000000000000000000000000000000000600052601260045260246000fd5b60006080820190508181036000830152613de98187612bd0565b90508181036020830152613dfd8186612bd0565b90508181036040830152613e118185612bd0565b9050613e206060830184613001565b95945050505050565b6000613e3482612c2b565b9150613e3f83612c2b565b925082613e4f57613e4e613da0565b5b828204905092915050565b6000613e6582612c2b565b9150613e7083612c2b565b9250817fffffffffffffffffffffffffffffffffffffffffffffffffffffffffffffffff0483118215151615613ea957613ea8613cd2565b5b828202905092915050565b7f45524337323155524953746f726167653a2055524920736574206f66206e6f6e60008201527f6578697374656e7420746f6b656e000000000000000000000000000000000000602082015250565b6000613f10602e83612b7b565b9150613f1b82613eb4565b604082019050919050565b60006020820190508181036000830152613f3f81613f03565b9050919050565b6000613f5182612c2b565b9150613f5c83612c2b565b925082821015613f6f57613f6e613cd2565b5b828203905092915050565b600081519050919050565b600082825260208201905092915050565b6000613fa182613f7a565b613fab8185613f85565b9350613fbb818560208601612b8c565b613fc481612bbf565b840191505092915050565b6000608082019050613fe46000830187612cc0565b613ff16020830186612cc0565b613ffe6040830185613001565b81810360608301526140108184613f96565b905095945050505050565b60008151905061402a81612ae1565b92915050565b60006020828403121561404657614045612aab565b5b60006140548482850161401b565b91505092915050565b7f4552433732313a206d696e7420746f20746865207a65726f2061646472657373600082015250565b6000614093602083612b7b565b915061409e8261405d565b602082019050919050565b600060208201905081810360008301526140c281614086565b9050919050565b7f4552433732313a20746f6b656e20616c7265616479206d696e74656400000000600082015250565b60006140ff601c83612b7b565b915061410a826140c9565b602082019050919050565b6000602082019050818103600083015261412e816140f2565b905091905056fe0a2d2d2d2d2d2d2d2d2d2d2d2d2d2d2d2d2d2d2d2d2d2d2d2d2d2d2d2d2d2d2d2d2d2d2d2d2d2d2d2d2d2d2d2d2d2d2d2d2d2d2d2d2d2d2d2d5265676973746572696e672025732e2573206f6e2074686520636f6e7472616374207769746820746f6b656e49442025642d2d2d2d2d2d2d2d2d2d2d2d2d2d2d2d2d2d2d2d2d2d2d2d2d2d2d2d2d2d2d2d2d2d2d2d2d2d2d2d2d2d2d2d2d2d2d2d2d2d2d2d2d2d2d2d0a4142434445464748494a4b4c4d4e4f505152535455565758595a6162636465666768696a6b6c6d6e6f707172737475767778797a303132333435363738392b2fa264697066735822122098d888a48cda9519458f20bd489404a11b9223ed4847b139d4ade520dbc5097264736f6c634300080a00333c73766720786d6c6e733d22687474703a2f2f7777772e77332e6f72672f323030302f737667222077696474683d2232373022206865696768743d22323730222066696c6c3d226e6f6e65223e3c706174682066696c6c3d2275726c282342292220643d224d302030683237307632373048307a222f3e3c646566733e3c66696c7465722069643d22412220636f6c6f722d696e746572706f6c6174696f6e2d66696c746572733d2273524742222066696c746572556e6974733d227573657253706163654f6e55736522206865696768743d22323730222077696474683d22323730223e3c666544726f70536861646f772064783d2230222064793d22312220737464446576696174696f6e3d22322220666c6f6f642d6f7061636974793d222e323235222077696474683d223230302522206865696768743d2232303025222f3e3c2f66696c7465723e3c2f646566733e3c7061746820643d224d37322e3836332034322e393439632d2e3636382d2e3338372d312e3432362d2e35392d322e3139372d2e3539732d312e3532392e3230342d322e3139372e35396c2d31302e30383120362e3033322d362e383520332e3933342d31302e30383120362e303332632d2e3636382e3338372d312e3432362e35392d322e3139372e3539732d312e3532392d2e3230342d322e3139372d2e35396c2d382e3031332d342e37323161342e353220342e35322030203020312d312e3538392d312e363136632d2e3338342d2e3636352d2e3539342d312e3431382d2e3630382d322e313837762d392e3331632d2e3031332d2e3737352e3138352d312e3533382e3537322d322e32303861342e323520342e323520302030203120312e3632352d312e3539356c372e3838342d342e3539632e3636382d2e33383720312e3432362d2e353920322e3139372d2e353973312e3532392e32303420322e3139372e35396c372e38383420342e353961342e353220342e353220302030203120312e35383920312e363136632e3338342e3636352e35393420312e3431382e36303820322e31383776362e3033326c362e38352d342e303635762d362e303332632e3031332d2e3737352d2e3138352d312e3533382d2e3537322d322e32303861342e323520342e32352030203020302d312e3632352d312e3539354c34312e3435362032342e3539632d2e3636382d2e3338372d312e3432362d2e35392d322e3139372d2e3539732d312e3532392e3230342d322e3139372e35396c2d31342e38363420382e36353561342e323520342e32352030203020302d312e36323520312e353935632d2e3338372e36372d2e35383520312e3433342d2e35373220322e3230387631372e343431632d2e3031332e3737352e31383520312e3533382e35373220322e32303861342e323520342e323520302030203020312e36323520312e3539356c31342e38363420382e363535632e3636382e33383720312e3432362e353920322e3139372e353973312e3532392d2e32303420322e3139372d2e35396c31302e3038312d352e39303120362e38352d342e3036352031302e3038312d352e393031632e3636382d2e33383720312e3432362d2e353920322e3139372d2e353973312e3532392e32303420322e3139372e35396c372e38383420342e353961342e353220342e353220302030203120312e35383920312e363136632e3338342e3636352e35393420312e3431382e36303820322e31383776392e333131632e3031332e3737352d2e31383520312e3533382d2e35373220322e32303861342e323520342e32352030203020312d312e36323520312e3539356c2d372e38383420342e373231632d2e3636382e3338372d312e3432362e35392d322e3139372e3539732d312e3532392d2e3230342d322e3139372d2e35396c2d372e3838342d342e353961342e353220342e35322030203020312d312e3538392d312e363136632d2e3338352d2e3636352d2e3539342d312e3431382d2e3630382d322e313837762d362e3033326c2d362e383520342e30363576362e303332632d2e3031332e3737352e31383520312e3533382e35373220322e32303861342e323520342e323520302030203020312e36323520312e3539356c31342e38363420382e363535632e3636382e33383720312e3432362e353920322e3139372e353973312e3532392d2e32303420322e3139372d2e35396c31342e3836342d382e363535632e3635372d2e33393420312e3230342d2e393520312e3538392d312e363136732e3539342d312e3431382e3630392d322e3138375635352e353338632e3031332d2e3737352d2e3138352d312e3533382d2e3537322d322e32303861342e323520342e32352030203020302d312e3632352d312e3539356c2d31342e3939332d382e3738367a222066696c6c3d2223666666222f3e3c646566733e3c6c696e6561724772616469656e742069643d2242222078313d2230222079313d2230222078323d22323730222079323d2232373022206772616469656e74556e6974733d227573657253706163654f6e557365223e3c73746f702073746f702d636f6c6f723d2223636235656565222f3e3c73746f70206f66667365743d2231222073746f702d636f6c6f723d2223306364376534222073746f702d6f7061636974793d222e3939222f3e3c2f6c696e6561724772616469656e743e3c2f646566733e3c7465787420783d2233322e352220793d223233312220666f6e742d73697a653d223237222066696c6c3d2223666666222066696c7465723d2275726c282341292220666f6e742d66616d696c793d22506c7573204a616b617274612053616e732c44656a6156752053616e732c4e6f746f20436f6c6f7220456d6f6a692c4170706c6520436f6c6f7220456d6f6a692c73616e732d73657269662220666f6e742d7765696768743d22626f6c64223e",
  "linkReferences": {},
  "deployedLinkReferences": {}
}